{
  "transactions": [
    {
      "hash": "0xeb1bc9ae0a9bfe3c5cff524f8c0774ec315cbfabdc9f58f1245f3a319d9199aa",
      "transactionType": "CALL",
      "contractName": null,
      "contractAddress": "0x8004a6090cd10a7288092483047b097295fb8847",
      "function": "setAgentUri(uint256,string)",
      "arguments": [
        "9",
        "http://ec2-3-88-34-252.compute-1.amazonaws.com:3001"
      ],
      "transaction": {
        "from": "0xcf5545e48aabaa59d8b19f0850bfc9e000a21bad",
        "to": "0x8004a6090cd10a7288092483047b097295fb8847",
        "gas": "0x10d80",
        "value": "0x0",
        "input": "0x5a753149000000000000000000000000000000000000000000000000000000000000000900000000000000000000000000000000000000000000000000000000000000400000000000000000000000000000000000000000000000000000000000000033687474703a2f2f6563322d332d38382d33342d3235322e636f6d707574652d312e616d617a6f6e6177732e636f6d3a3330303100000000000000000000000000",
        "nonce": "0x2",
        "chainId": "0xaa36a7"
      },
      "additionalContracts": [],
      "isFixedGasLimit": false
    }
  ],
  "receipts": [
    {
      "status": "0x1",
      "cumulativeGasUsed": "0x613677",
      "logs": [
        {
          "address": "0x8004a6090cd10a7288092483047b097295fb8847",
          "topics": [
            "0xf8e1a15aba9398e019f0b49df1a4fde98ee17ae345cb5f6b5e2c27f5033e8ce7"
          ],
          "data": "0x0000000000000000000000000000000000000000000000000000000000000009",
          "blockHash": "0x7767ebb909206b5410d282cbe7668f9585339a11dd22ead93f1ae8526870b406",
          "blockNumber": "0x9003ea",
          "blockTimestamp": "0x68f3865c",
          "transactionHash": "0xeb1bc9ae0a9bfe3c5cff524f8c0774ec315cbfabdc9f58f1245f3a319d9199aa",
          "transactionIndex": "0x46",
          "logIndex": "0x65",
          "removed": false
        },
        {
          "address": "0x8004a6090cd10a7288092483047b097295fb8847",
          "topics": [
            "0xb41beef75d9f8d55b985319b459e96f82453580af381391f1ad531eb8f8b5a3a",
            "0x0000000000000000000000000000000000000000000000000000000000000009",
            "0x000000000000000000000000cf5545e48aabaa59d8b19f0850bfc9e000a21bad"
          ],
          "data": "0x00000000000000000000000000000000000000000000000000000000000000200000000000000000000000000000000000000000000000000000000000000033687474703a2f2f6563322d332d38382d33342d3235322e636f6d707574652d312e616d617a6f6e6177732e636f6d3a3330303100000000000000000000000000",
          "blockHash": "0x7767ebb909206b5410d282cbe7668f9585339a11dd22ead93f1ae8526870b406",
          "blockNumber": "0x9003ea",
          "blockTimestamp": "0x68f3865c",
          "transactionHash": "0xeb1bc9ae0a9bfe3c5cff524f8c0774ec315cbfabdc9f58f1245f3a319d9199aa",
          "transactionIndex": "0x46",
          "logIndex": "0x66",
          "removed": false
        }
      ],
      "logsBloom": "0x00000002000000000000000000000000000000000000000000000000000000000000000000008000000000000100400000000000000000000000000000200000000000000000000000000000000000000000000000000000000000000000000000000000000000000000000000000000000000000000000000000000000000000000000000000010000000001000000000001000000000000000000000000000000000000000000000000000000000002000000000000000000000000000008000000000000000000000000008000000000000000000000000000000000000000000000200000000200000000000000000000000000000000000000020800000",
      "type": "0x2",
      "transactionHash": "0xeb1bc9ae0a9bfe3c5cff524f8c0774ec315cbfabdc9f58f1245f3a319d9199aa",
      "transactionIndex": "0x46",
      "blockHash": "0x7767ebb909206b5410d282cbe7668f9585339a11dd22ead93f1ae8526870b406",
      "blockNumber": "0x9003ea",
      "gasUsed": "0xc31e",
      "effectiveGasPrice": "0xf424a",
      "from": "0xcf5545e48aabaa59d8b19f0850bfc9e000a21bad",
      "to": "0x8004a6090cd10a7288092483047b097295fb8847",
      "contractAddress": null
    }
  ],
  "libraries": [],
  "pending": [],
  "returns": {},
  "timestamp": 1760790108581,
  "chain": 11155111,
  "commit": "8f8a867"
}