{
  "transactions": [
    {
      "hash": "0x6551b62801d7ce8e969f19cda557bf64cdb048b21cb8981cccc301b1363c1074",
      "transactionType": "CALL",
      "contractName": null,
      "contractAddress": "0x8004a6090cd10a7288092483047b097295fb8847",
      "function": "register(string,(string,bytes)[])",
      "arguments": [
        "https://0d3bbc4b762c.ngrok-free.app/.well-known/agent-card.json",
        "[(agentName, 0x61746f61206167656e742031), (image, 0x68747470733a2f2f7075622d30613865373930636331326434636437613962376335323635333164323962612e72322e6465762f77616e2d766964656f2f696d616765732f67656e6572617465642f3638633735613130656564373738633361666366393037652f67656e6572617465645f696d6167652e706e67), (homepage, 0x68747470733a2f2f3064336262633462373632632e6e67726f6b2d667265652e617070)]"
      ],
      "transaction": {
        "from": "0xcf5545e48aabaa59d8b19f0850bfc9e000a21bad",
        "to": "0x8004a6090cd10a7288092483047b097295fb8847",
        "gas": "0x7e875",
        "value": "0x0",
        "input": "0x8ea42286000000000000000000000000000000000000000000000000000000000000004000000000000000000000000000000000000000000000000000000000000000a0000000000000000000000000000000000000000000000000000000000000003f68747470733a2f2f3064336262633462373632632e6e67726f6b2d667265652e6170702f2e77656c6c2d6b6e6f776e2f6167656e742d636172642e6a736f6e0000000000000000000000000000000000000000000000000000000000000000030000000000000000000000000000000000000000000000000000000000000060000000000000000000000000000000000000000000000000000000000000012000000000000000000000000000000000000000000000000000000000000002400000000000000000000000000000000000000000000000000000000000000040000000000000000000000000000000000000000000000000000000000000008000000000000000000000000000000000000000000000000000000000000000096167656e744e616d650000000000000000000000000000000000000000000000000000000000000000000000000000000000000000000000000000000000000c61746f61206167656e7420310000000000000000000000000000000000000000000000000000000000000000000000000000000000000000000000000000004000000000000000000000000000000000000000000000000000000000000000800000000000000000000000000000000000000000000000000000000000000005696d616765000000000000000000000000000000000000000000000000000000000000000000000000000000000000000000000000000000000000000000007b68747470733a2f2f7075622d30613865373930636331326434636437613962376335323635333164323962612e72322e6465762f77616e2d766964656f2f696d616765732f67656e6572617465642f3638633735613130656564373738633361666366393037652f67656e6572617465645f696d6167652e706e670000000000000000000000000000000000000000000000000000000000000000000000004000000000000000000000000000000000000000000000000000000000000000800000000000000000000000000000000000000000000000000000000000000008686f6d6570616765000000000000000000000000000000000000000000000000000000000000000000000000000000000000000000000000000000000000002368747470733a2f2f3064336262633462373632632e6e67726f6b2d667265652e6170700000000000000000000000000000000000000000000000000000000000",
        "nonce": "0x1",
        "chainId": "0xaa36a7"
      },
      "additionalContracts": [],
      "isFixedGasLimit": false
    }
  ],
  "receipts": [
    {
      "status": "0x1",
      "cumulativeGasUsed": "0xd00527",
      "logs": [
        {
          "address": "0x8004a6090cd10a7288092483047b097295fb8847",
          "topics": [
            "0xddf252ad1be2c89b69c2b068fc378daa952ba7f163c4a11628f55a4df523b3ef",
            "0x0000000000000000000000000000000000000000000000000000000000000000",
            "0x000000000000000000000000cf5545e48aabaa59d8b19f0850bfc9e000a21bad",
            "0x0000000000000000000000000000000000000000000000000000000000000009"
          ],
          "data": "0x",
          "blockHash": "0xd92587540db2ac4cf9d0d3b48b233a601b934c6474bb14463425d688bdeef54a",
          "blockNumber": "0x8fdf97",
          "blockTimestamp": "0x68f1cdec",
          "transactionHash": "0x6551b62801d7ce8e969f19cda557bf64cdb048b21cb8981cccc301b1363c1074",
          "transactionIndex": "0x85",
          "logIndex": "0xb8",
          "removed": false
        },
        {
          "address": "0x8004a6090cd10a7288092483047b097295fb8847",
          "topics": [
            "0xf8e1a15aba9398e019f0b49df1a4fde98ee17ae345cb5f6b5e2c27f5033e8ce7"
          ],
          "data": "0x0000000000000000000000000000000000000000000000000000000000000009",
          "blockHash": "0xd92587540db2ac4cf9d0d3b48b233a601b934c6474bb14463425d688bdeef54a",
          "blockNumber": "0x8fdf97",
          "blockTimestamp": "0x68f1cdec",
          "transactionHash": "0x6551b62801d7ce8e969f19cda557bf64cdb048b21cb8981cccc301b1363c1074",
          "transactionIndex": "0x85",
          "logIndex": "0xb9",
          "removed": false
        },
        {
          "address": "0x8004a6090cd10a7288092483047b097295fb8847",
          "topics": [
            "0xca52e62c367d81bb2e328eb795f7c7ba24afb478408a26c0e201d155c449bc4a",
            "0x0000000000000000000000000000000000000000000000000000000000000009",
            "0x000000000000000000000000cf5545e48aabaa59d8b19f0850bfc9e000a21bad"
          ],
          "data": "0x0000000000000000000000000000000000000000000000000000000000000020000000000000000000000000000000000000000000000000000000000000003f68747470733a2f2f3064336262633462373632632e6e67726f6b2d667265652e6170702f2e77656c6c2d6b6e6f776e2f6167656e742d636172642e6a736f6e00",
          "blockHash": "0xd92587540db2ac4cf9d0d3b48b233a601b934c6474bb14463425d688bdeef54a",
          "blockNumber": "0x8fdf97",
          "blockTimestamp": "0x68f1cdec",
          "transactionHash": "0x6551b62801d7ce8e969f19cda557bf64cdb048b21cb8981cccc301b1363c1074",
          "transactionIndex": "0x85",
          "logIndex": "0xba",
          "removed": false
        },
        {
          "address": "0x8004a6090cd10a7288092483047b097295fb8847",
          "topics": [
            "0x2c149ed548c6d2993cd73efe187df6eccabe4538091b33adbd25fafdb8a1468b",
            "0x0000000000000000000000000000000000000000000000000000000000000009",
            "0xbeac84f150cf983e3e9740d2cef38aa9c331bfec6a3f40772fd9f52a155f44c6"
          ],
          "data": "0x0000000000000000000000000000000000000000000000000000000000000040000000000000000000000000000000000000000000000000000000000000008000000000000000000000000000000000000000000000000000000000000000096167656e744e616d650000000000000000000000000000000000000000000000000000000000000000000000000000000000000000000000000000000000000c61746f61206167656e7420310000000000000000000000000000000000000000",
          "blockHash": "0xd92587540db2ac4cf9d0d3b48b233a601b934c6474bb14463425d688bdeef54a",
          "blockNumber": "0x8fdf97",
          "blockTimestamp": "0x68f1cdec",
          "transactionHash": "0x6551b62801d7ce8e969f19cda557bf64cdb048b21cb8981cccc301b1363c1074",
          "transactionIndex": "0x85",
          "logIndex": "0xbb",
          "removed": false
        },
        {
          "address": "0x8004a6090cd10a7288092483047b097295fb8847",
          "topics": [
            "0x2c149ed548c6d2993cd73efe187df6eccabe4538091b33adbd25fafdb8a1468b",
            "0x0000000000000000000000000000000000000000000000000000000000000009",
            "0x2abb082c1b23ea79fce2a9e934ecb19ce15738b1483c365d0125f47e8ccc7dfc"
          ],
          "data": "0x000000000000000000000000000000000000000000000000000000000000004000000000000000000000000000000000000000000000000000000000000000800000000000000000000000000000000000000000000000000000000000000005696d616765000000000000000000000000000000000000000000000000000000000000000000000000000000000000000000000000000000000000000000007b68747470733a2f2f7075622d30613865373930636331326434636437613962376335323635333164323962612e72322e6465762f77616e2d766964656f2f696d616765732f67656e6572617465642f3638633735613130656564373738633361666366393037652f67656e6572617465645f696d6167652e706e670000000000",
          "blockHash": "0xd92587540db2ac4cf9d0d3b48b233a601b934c6474bb14463425d688bdeef54a",
          "blockNumber": "0x8fdf97",
          "blockTimestamp": "0x68f1cdec",
          "transactionHash": "0x6551b62801d7ce8e969f19cda557bf64cdb048b21cb8981cccc301b1363c1074",
          "transactionIndex": "0x85",
          "logIndex": "0xbc",
          "removed": false
        },
        {
          "address": "0x8004a6090cd10a7288092483047b097295fb8847",
          "topics": [
            "0x2c149ed548c6d2993cd73efe187df6eccabe4538091b33adbd25fafdb8a1468b",
            "0x0000000000000000000000000000000000000000000000000000000000000009",
            "0xf6fdc32f6a1fd87129b13b78fb1f502055de3357a8ae2400309117eddd1de4e5"
          ],
          "data": "0x000000000000000000000000000000000000000000000000000000000000004000000000000000000000000000000000000000000000000000000000000000800000000000000000000000000000000000000000000000000000000000000008686f6d6570616765000000000000000000000000000000000000000000000000000000000000000000000000000000000000000000000000000000000000002368747470733a2f2f3064336262633462373632632e6e67726f6b2d667265652e6170700000000000000000000000000000000000000000000000000000000000",
          "blockHash": "0xd92587540db2ac4cf9d0d3b48b233a601b934c6474bb14463425d688bdeef54a",
          "blockNumber": "0x8fdf97",
          "blockTimestamp": "0x68f1cdec",
          "transactionHash": "0x6551b62801d7ce8e969f19cda557bf64cdb048b21cb8981cccc301b1363c1074",
          "transactionIndex": "0x85",
          "logIndex": "0xbd",
          "removed": false
        }
      ],
      "logsBloom": "0x00000002000000000000000000000000000000000000000000000000000000000000000080000000000400000100210000000000000000000000000000200000000000000000008000000008000000000000000000000000000000000000000000000000021000000000000000000800080000000000000000000010000000000000000000000010000000001000000080001000000000000000000000000000000000000000000040000000000000002000000000000000000000000000008000000002000010000000000800000000000000000000400000000000000020000000000200010000200000000000008000000000000000000000000024800000",
      "type": "0x2",
      "transactionHash": "0x6551b62801d7ce8e969f19cda557bf64cdb048b21cb8981cccc301b1363c1074",
      "transactionIndex": "0x85",
      "blockHash": "0xd92587540db2ac4cf9d0d3b48b233a601b934c6474bb14463425d688bdeef54a",
      "blockNumber": "0x8fdf97",
      "gasUsed": "0x5b9ad",
      "effectiveGasPrice": "0xf423e",
      "from": "0xcf5545e48aabaa59d8b19f0850bfc9e000a21bad",
      "to": "0x8004a6090cd10a7288092483047b097295fb8847",
      "contractAddress": null
    }
  ],
  "libraries": [],
  "pending": [],
  "returns": {},
  "timestamp": 1760677356408,
  "chain": 11155111,
  "commit": "b89c305"
}