{
  "transactions": [
    {
      "hash": "0x82bbfd42310dd94269960611ab07ec7746f02cd3d9a39ac4af3431bbc5cde113",
      "transactionType": "CALL",
      "contractName": null,
      "contractAddress": "0x8004a6090cd10a7288092483047b097295fb8847",
      "function": "register(string,(string,bytes)[])",
      "arguments": [
        "http://ec2-3-88-34-252.compute-1.amazonaws.com:3004/.well-known/agent-card.json",
        "[(agentName, 0x646566696c6c616d612d6167656e74), (description, 0x446566694c6c616d61206167656e7420666f72207175657279696e672063727970746f20646174612e204765742050726f746f636f6c2054564c2c2067657420636861696e732074766c73), (image, 0x68747470733a2f2f7075622d30613865373930636331326434636437613962376335323635333164323962612e72322e6465762f77616e2d766964656f2f696d616765732f67656e6572617465642f3638633735613130656564373738633361666366393037652f67656e6572617465645f696d6167652e706e67), (agentBase, 0x687474703a2f2f6563322d332d38382d33342d3235322e636f6d707574652d312e616d617a6f6e6177732e636f6d3a33303034), (supportedTrust, 0x72657075746174696f6e), (ensName, 0x64656661756c742e657468), (agentAccount, 0x307830303030303030303030303030303030303030303030303030303030303030303030303030303030)]"
      ],
      "transaction": {
        "from": "0xcf5545e48aabaa59d8b19f0850bfc9e000a21bad",
        "to": "0x8004a6090cd10a7288092483047b097295fb8847",
        "gas": "0xce060",
        "value": "0x0",
        "input": "0x8ea42286000000000000000000000000000000000000000000000000000000000000004000000000000000000000000000000000000000000000000000000000000000c0000000000000000000000000000000000000000000000000000000000000004f687474703a2f2f6563322d332d38382d33342d3235322e636f6d707574652d312e616d617a6f6e6177732e636f6d3a333030342f2e77656c6c2d6b6e6f776e2f6167656e742d636172642e6a736f6e0000000000000000000000000000000000000000000000000000000000000000000000000000000000000000000000000700000000000000000000000000000000000000000000000000000000000000e000000000000000000000000000000000000000000000000000000000000001a000000000000000000000000000000000000000000000000000000000000002a000000000000000000000000000000000000000000000000000000000000003c000000000000000000000000000000000000000000000000000000000000004a0000000000000000000000000000000000000000000000000000000000000056000000000000000000000000000000000000000000000000000000000000006200000000000000000000000000000000000000000000000000000000000000040000000000000000000000000000000000000000000000000000000000000008000000000000000000000000000000000000000000000000000000000000000096167656e744e616d650000000000000000000000000000000000000000000000000000000000000000000000000000000000000000000000000000000000000f646566696c6c616d612d6167656e74000000000000000000000000000000000000000000000000000000000000000000000000000000000000000000000000400000000000000000000000000000000000000000000000000000000000000080000000000000000000000000000000000000000000000000000000000000000b6465736372697074696f6e000000000000000000000000000000000000000000000000000000000000000000000000000000000000000000000000000000004b446566694c6c616d61206167656e7420666f72207175657279696e672063727970746f20646174612e204765742050726f746f636f6c2054564c2c2067657420636861696e732074766c73000000000000000000000000000000000000000000000000000000000000000000000000000000000000000000000000000000004000000000000000000000000000000000000000000000000000000000000000800000000000000000000000000000000000000000000000000000000000000005696d616765000000000000000000000000000000000000000000000000000000000000000000000000000000000000000000000000000000000000000000007b68747470733a2f2f7075622d30613865373930636331326434636437613962376335323635333164323962612e72322e6465762f77616e2d766964656f2f696d616765732f67656e6572617465642f3638633735613130656564373738633361666366393037652f67656e6572617465645f696d6167652e706e6700000000000000000000000000000000000000000000000000000000000000000000000040000000000000000000000000000000000000000000000000000000000000008000000000000000000000000000000000000000000000000000000000000000096167656e744261736500000000000000000000000000000000000000000000000000000000000000000000000000000000000000000000000000000000000033687474703a2f2f6563322d332d38382d33342d3235322e636f6d707574652d312e616d617a6f6e6177732e636f6d3a333030340000000000000000000000000000000000000000000000000000000000000000000000000000000000000000400000000000000000000000000000000000000000000000000000000000000080000000000000000000000000000000000000000000000000000000000000000e737570706f727465645472757374000000000000000000000000000000000000000000000000000000000000000000000000000000000000000000000000000a72657075746174696f6e00000000000000000000000000000000000000000000000000000000000000000000000000000000000000000000000000000000004000000000000000000000000000000000000000000000000000000000000000800000000000000000000000000000000000000000000000000000000000000007656e734e616d6500000000000000000000000000000000000000000000000000000000000000000000000000000000000000000000000000000000000000000b64656661756c742e65746800000000000000000000000000000000000000000000000000000000000000000000000000000000000000000000000000000000400000000000000000000000000000000000000000000000000000000000000080000000000000000000000000000000000000000000000000000000000000000c6167656e744163636f756e740000000000000000000000000000000000000000000000000000000000000000000000000000000000000000000000000000002a30783030303030303030303030303030303030303030303030303030303030303030303030303030303000000000000000000000000000000000000000000000",
        "nonce": "0x4",
        "chainId": "0xaa36a7"
      },
      "additionalContracts": [],
      "isFixedGasLimit": false
    }
  ],
  "receipts": [
    {
      "status": "0x1",
      "cumulativeGasUsed": "0x57f964",
      "logs": [
        {
          "address": "0x8004a6090cd10a7288092483047b097295fb8847",
          "topics": [
            "0xddf252ad1be2c89b69c2b068fc378daa952ba7f163c4a11628f55a4df523b3ef",
            "0x0000000000000000000000000000000000000000000000000000000000000000",
            "0x000000000000000000000000cf5545e48aabaa59d8b19f0850bfc9e000a21bad",
            "0x000000000000000000000000000000000000000000000000000000000000001c"
          ],
          "data": "0x",
          "blockHash": "0xd729d977f3fd74152bdf4a44b212986e3cb702570c2b9dfb16dcce7eaec325d6",
          "blockNumber": "0x9012e1",
          "blockTimestamp": "0x68f43d20",
          "transactionHash": "0x82bbfd42310dd94269960611ab07ec7746f02cd3d9a39ac4af3431bbc5cde113",
          "transactionIndex": "0x30",
          "logIndex": "0x46",
          "removed": false
        },
        {
          "address": "0x8004a6090cd10a7288092483047b097295fb8847",
          "topics": [
            "0xf8e1a15aba9398e019f0b49df1a4fde98ee17ae345cb5f6b5e2c27f5033e8ce7"
          ],
          "data": "0x000000000000000000000000000000000000000000000000000000000000001c",
          "blockHash": "0xd729d977f3fd74152bdf4a44b212986e3cb702570c2b9dfb16dcce7eaec325d6",
          "blockNumber": "0x9012e1",
          "blockTimestamp": "0x68f43d20",
          "transactionHash": "0x82bbfd42310dd94269960611ab07ec7746f02cd3d9a39ac4af3431bbc5cde113",
          "transactionIndex": "0x30",
          "logIndex": "0x47",
          "removed": false
        },
        {
          "address": "0x8004a6090cd10a7288092483047b097295fb8847",
          "topics": [
            "0xca52e62c367d81bb2e328eb795f7c7ba24afb478408a26c0e201d155c449bc4a",
            "0x000000000000000000000000000000000000000000000000000000000000001c",
            "0x000000000000000000000000cf5545e48aabaa59d8b19f0850bfc9e000a21bad"
          ],
          "data": "0x0000000000000000000000000000000000000000000000000000000000000020000000000000000000000000000000000000000000000000000000000000004f687474703a2f2f6563322d332d38382d33342d3235322e636f6d707574652d312e616d617a6f6e6177732e636f6d3a333030342f2e77656c6c2d6b6e6f776e2f6167656e742d636172642e6a736f6e0000000000000000000000000000000000",
          "blockHash": "0xd729d977f3fd74152bdf4a44b212986e3cb702570c2b9dfb16dcce7eaec325d6",
          "blockNumber": "0x9012e1",
          "blockTimestamp": "0x68f43d20",
          "transactionHash": "0x82bbfd42310dd94269960611ab07ec7746f02cd3d9a39ac4af3431bbc5cde113",
          "transactionIndex": "0x30",
          "logIndex": "0x48",
          "removed": false
        },
        {
          "address": "0x8004a6090cd10a7288092483047b097295fb8847",
          "topics": [
            "0x2c149ed548c6d2993cd73efe187df6eccabe4538091b33adbd25fafdb8a1468b",
            "0x000000000000000000000000000000000000000000000000000000000000001c",
            "0xbeac84f150cf983e3e9740d2cef38aa9c331bfec6a3f40772fd9f52a155f44c6"
          ],
          "data": "0x0000000000000000000000000000000000000000000000000000000000000040000000000000000000000000000000000000000000000000000000000000008000000000000000000000000000000000000000000000000000000000000000096167656e744e616d650000000000000000000000000000000000000000000000000000000000000000000000000000000000000000000000000000000000000f646566696c6c616d612d6167656e740000000000000000000000000000000000",
          "blockHash": "0xd729d977f3fd74152bdf4a44b212986e3cb702570c2b9dfb16dcce7eaec325d6",
          "blockNumber": "0x9012e1",
          "blockTimestamp": "0x68f43d20",
          "transactionHash": "0x82bbfd42310dd94269960611ab07ec7746f02cd3d9a39ac4af3431bbc5cde113",
          "transactionIndex": "0x30",
          "logIndex": "0x49",
          "removed": false
        },
        {
          "address": "0x8004a6090cd10a7288092483047b097295fb8847",
          "topics": [
            "0x2c149ed548c6d2993cd73efe187df6eccabe4538091b33adbd25fafdb8a1468b",
            "0x000000000000000000000000000000000000000000000000000000000000001c",
            "0x1596dc38e2ac5a6ddc5e019af4adcc1e017a04f510d57e69d6879d5d2996bb8e"
          ],
          "data": "0x00000000000000000000000000000000000000000000000000000000000000400000000000000000000000000000000000000000000000000000000000000080000000000000000000000000000000000000000000000000000000000000000b6465736372697074696f6e000000000000000000000000000000000000000000000000000000000000000000000000000000000000000000000000000000004b446566694c6c616d61206167656e7420666f72207175657279696e672063727970746f20646174612e204765742050726f746f636f6c2054564c2c2067657420636861696e732074766c73000000000000000000000000000000000000000000",
          "blockHash": "0xd729d977f3fd74152bdf4a44b212986e3cb702570c2b9dfb16dcce7eaec325d6",
          "blockNumber": "0x9012e1",
          "blockTimestamp": "0x68f43d20",
          "transactionHash": "0x82bbfd42310dd94269960611ab07ec7746f02cd3d9a39ac4af3431bbc5cde113",
          "transactionIndex": "0x30",
          "logIndex": "0x4a",
          "removed": false
        },
        {
          "address": "0x8004a6090cd10a7288092483047b097295fb8847",
          "topics": [
            "0x2c149ed548c6d2993cd73efe187df6eccabe4538091b33adbd25fafdb8a1468b",
            "0x000000000000000000000000000000000000000000000000000000000000001c",
            "0x2abb082c1b23ea79fce2a9e934ecb19ce15738b1483c365d0125f47e8ccc7dfc"
          ],
          "data": "0x000000000000000000000000000000000000000000000000000000000000004000000000000000000000000000000000000000000000000000000000000000800000000000000000000000000000000000000000000000000000000000000005696d616765000000000000000000000000000000000000000000000000000000000000000000000000000000000000000000000000000000000000000000007b68747470733a2f2f7075622d30613865373930636331326434636437613962376335323635333164323962612e72322e6465762f77616e2d766964656f2f696d616765732f67656e6572617465642f3638633735613130656564373738633361666366393037652f67656e6572617465645f696d6167652e706e670000000000",
          "blockHash": "0xd729d977f3fd74152bdf4a44b212986e3cb702570c2b9dfb16dcce7eaec325d6",
          "blockNumber": "0x9012e1",
          "blockTimestamp": "0x68f43d20",
          "transactionHash": "0x82bbfd42310dd94269960611ab07ec7746f02cd3d9a39ac4af3431bbc5cde113",
          "transactionIndex": "0x30",
          "logIndex": "0x4b",
          "removed": false
        },
        {
          "address": "0x8004a6090cd10a7288092483047b097295fb8847",
          "topics": [
            "0x2c149ed548c6d2993cd73efe187df6eccabe4538091b33adbd25fafdb8a1468b",
            "0x000000000000000000000000000000000000000000000000000000000000001c",
            "0x6a5b8b877c67a514a83b3b9f860994aa761dc5db2e8b2ba097425894820c3980"
          ],
          "data": "0x0000000000000000000000000000000000000000000000000000000000000040000000000000000000000000000000000000000000000000000000000000008000000000000000000000000000000000000000000000000000000000000000096167656e744261736500000000000000000000000000000000000000000000000000000000000000000000000000000000000000000000000000000000000033687474703a2f2f6563322d332d38382d33342d3235322e636f6d707574652d312e616d617a6f6e6177732e636f6d3a3330303400000000000000000000000000",
          "blockHash": "0xd729d977f3fd74152bdf4a44b212986e3cb702570c2b9dfb16dcce7eaec325d6",
          "blockNumber": "0x9012e1",
          "blockTimestamp": "0x68f43d20",
          "transactionHash": "0x82bbfd42310dd94269960611ab07ec7746f02cd3d9a39ac4af3431bbc5cde113",
          "transactionIndex": "0x30",
          "logIndex": "0x4c",
          "removed": false
        },
        {
          "address": "0x8004a6090cd10a7288092483047b097295fb8847",
          "topics": [
            "0x2c149ed548c6d2993cd73efe187df6eccabe4538091b33adbd25fafdb8a1468b",
            "0x000000000000000000000000000000000000000000000000000000000000001c",
            "0xdcfd4524f47d3ccd43ecc096a76840b64b79fc29ead7e07c3ef666667925421d"
          ],
          "data": "0x00000000000000000000000000000000000000000000000000000000000000400000000000000000000000000000000000000000000000000000000000000080000000000000000000000000000000000000000000000000000000000000000e737570706f727465645472757374000000000000000000000000000000000000000000000000000000000000000000000000000000000000000000000000000a72657075746174696f6e00000000000000000000000000000000000000000000",
          "blockHash": "0xd729d977f3fd74152bdf4a44b212986e3cb702570c2b9dfb16dcce7eaec325d6",
          "blockNumber": "0x9012e1",
          "blockTimestamp": "0x68f43d20",
          "transactionHash": "0x82bbfd42310dd94269960611ab07ec7746f02cd3d9a39ac4af3431bbc5cde113",
          "transactionIndex": "0x30",
          "logIndex": "0x4d",
          "removed": false
        },
        {
          "address": "0x8004a6090cd10a7288092483047b097295fb8847",
          "topics": [
            "0x2c149ed548c6d2993cd73efe187df6eccabe4538091b33adbd25fafdb8a1468b",
            "0x000000000000000000000000000000000000000000000000000000000000001c",
            "0x8cddf43c735600e0954886c122d8a1e94d922e011ec80d0bd412de7cb68129d8"
          ],
          "data": "0x000000000000000000000000000000000000000000000000000000000000004000000000000000000000000000000000000000000000000000000000000000800000000000000000000000000000000000000000000000000000000000000007656e734e616d6500000000000000000000000000000000000000000000000000000000000000000000000000000000000000000000000000000000000000000b64656661756c742e657468000000000000000000000000000000000000000000",
          "blockHash": "0xd729d977f3fd74152bdf4a44b212986e3cb702570c2b9dfb16dcce7eaec325d6",
          "blockNumber": "0x9012e1",
          "blockTimestamp": "0x68f43d20",
          "transactionHash": "0x82bbfd42310dd94269960611ab07ec7746f02cd3d9a39ac4af3431bbc5cde113",
          "transactionIndex": "0x30",
          "logIndex": "0x4e",
          "removed": false
        },
        {
          "address": "0x8004a6090cd10a7288092483047b097295fb8847",
          "topics": [
            "0x2c149ed548c6d2993cd73efe187df6eccabe4538091b33adbd25fafdb8a1468b",
            "0x000000000000000000000000000000000000000000000000000000000000001c",
            "0xfcdacc0b90b13f670df9fc7b4bec677688e613fb0774da229c742c260735c700"
          ],
          "data": "0x00000000000000000000000000000000000000000000000000000000000000400000000000000000000000000000000000000000000000000000000000000080000000000000000000000000000000000000000000000000000000000000000c6167656e744163636f756e740000000000000000000000000000000000000000000000000000000000000000000000000000000000000000000000000000002a30783030303030303030303030303030303030303030303030303030303030303030303030303030303000000000000000000000000000000000000000000000",
          "blockHash": "0xd729d977f3fd74152bdf4a44b212986e3cb702570c2b9dfb16dcce7eaec325d6",
          "blockNumber": "0x9012e1",
          "blockTimestamp": "0x68f43d20",
          "transactionHash": "0x82bbfd42310dd94269960611ab07ec7746f02cd3d9a39ac4af3431bbc5cde113",
          "transactionIndex": "0x30",
          "logIndex": "0x4f",
          "removed": false
        }
      ],
      "logsBloom": "0x00000002000000000000000008000000000000000000000000400000000000000000000080000000000400000100010000000000000000200000000000000000000100000000008000000008002000000000000000000000000000000000000000040000020000000000000000000800000000000000000000000010000000000000000000000010002000001000040280000000000000800000000000400000000000000000000040000002000000002800000000000000000000000000008000040002000010000000000800000000000000000000400000000000020020000000000200010040200000001000008000000000000000002000000024000000",
      "type": "0x2",
      "transactionHash": "0x82bbfd42310dd94269960611ab07ec7746f02cd3d9a39ac4af3431bbc5cde113",
      "transactionIndex": "0x30",
      "blockHash": "0xd729d977f3fd74152bdf4a44b212986e3cb702570c2b9dfb16dcce7eaec325d6",
      "blockNumber": "0x9012e1",
      "gasUsed": "0x95285",
      "effectiveGasPrice": "0xf4248",
      "from": "0xcf5545e48aabaa59d8b19f0850bfc9e000a21bad",
      "to": "0x8004a6090cd10a7288092483047b097295fb8847",
      "contractAddress": null
    }
  ],
  "libraries": [],
  "pending": [],
  "returns": {},
  "timestamp": 1760836896796,
  "chain": 11155111,
  "commit": "af69573"
}